{
  "contractName": "ChildData",
  "abi": [
    {
      "inputs": [],
      "name": "childCount",
      "outputs": [
        {
          "internalType": "uint256",
          "name": "",
          "type": "uint256"
        }
      ],
      "stateMutability": "view",
      "type": "function"
    },
    {
      "inputs": [
        {
          "internalType": "uint256",
          "name": "",
          "type": "uint256"
        }
      ],
      "name": "children",
      "outputs": [
        {
          "internalType": "string",
          "name": "name",
          "type": "string"
        },
        {
          "internalType": "uint256",
          "name": "weightOnAdmission",
          "type": "uint256"
        },
        {
          "internalType": "uint256",
          "name": "weightOnDischarge",
          "type": "uint256"
        }
      ],
      "stateMutability": "view",
      "type": "function"
    },
    {
      "inputs": [
        {
          "internalType": "string",
          "name": "_name",
          "type": "string"
        },
        {
          "internalType": "uint256",
          "name": "_weightOnAdmission",
          "type": "uint256"
        },
        {
          "internalType": "uint256",
          "name": "_weightOnDischarge",
          "type": "uint256"
        }
      ],
      "name": "addChild",
      "outputs": [],
      "stateMutability": "nonpayable",
      "type": "function"
    },
    {
      "inputs": [
        {
          "internalType": "uint256",
          "name": "_index",
          "type": "uint256"
        }
      ],
      "name": "getChild",
      "outputs": [
        {
          "internalType": "string",
          "name": "",
          "type": "string"
        },
        {
          "internalType": "uint256",
          "name": "",
          "type": "uint256"
        },
        {
          "internalType": "uint256",
          "name": "",
          "type": "uint256"
        }
      ],
      "stateMutability": "view",
      "type": "function"
    }
  ],
  "bytecode": "0x608060405234801561000f575f80fd5b50610a068061001d5f395ff3fe608060405234801561000f575f80fd5b506004361061004a575f3560e01c8063667944a31461004e5780637002ce421461006a5780638bc3bbc01461009c578063c909ea42146100ba575b5f80fd5b610068600480360381019061006391906104b6565b6100ec565b005b610084600480360381019061007f9190610522565b610160565b604051610093939291906105d6565b60405180910390f35b6100a461020b565b6040516100b19190610612565b60405180910390f35b6100d460048036038101906100cf9190610522565b610211565b6040516100e3939291906105d6565b60405180910390f35b6040518060600160405280848152602001838152602001828152505f8060015481526020019081526020015f205f820151815f01908161012c9190610825565b50602082015181600101556040820151816002015590505060015f81548092919061015690610921565b9190505550505050565b5f602052805f5260405f205f91509050805f01805461017e90610658565b80601f01602080910402602001604051908101604052809291908181526020018280546101aa90610658565b80156101f55780601f106101cc576101008083540402835291602001916101f5565b820191905f5260205f20905b8154815290600101906020018083116101d857829003601f168201915b5050505050908060010154908060020154905083565b60015481565b60605f806001548410610259576040517f08c379a0000000000000000000000000000000000000000000000000000000008152600401610250906109b2565b60405180910390fd5b5f805f8681526020019081526020015f206040518060600160405290815f8201805461028490610658565b80601f01602080910402602001604051908101604052809291908181526020018280546102b090610658565b80156102fb5780601f106102d2576101008083540402835291602001916102fb565b820191905f5260205f20905b8154815290600101906020018083116102de57829003601f168201915b50505050508152602001600182015481526020016002820154815250509050805f015181602001518260400151935093509350509193909250565b5f604051905090565b5f80fd5b5f80fd5b5f80fd5b5f80fd5b5f601f19601f8301169050919050565b7f4e487b71000000000000000000000000000000000000000000000000000000005f52604160045260245ffd5b6103958261034f565b810181811067ffffffffffffffff821117156103b4576103b361035f565b5b80604052505050565b5f6103c6610336565b90506103d2828261038c565b919050565b5f67ffffffffffffffff8211156103f1576103f061035f565b5b6103fa8261034f565b9050602081019050919050565b828183375f83830152505050565b5f610427610422846103d7565b6103bd565b9050828152602081018484840111156104435761044261034b565b5b61044e848285610407565b509392505050565b5f82601f83011261046a57610469610347565b5b813561047a848260208601610415565b91505092915050565b5f819050919050565b61049581610483565b811461049f575f80fd5b50565b5f813590506104b08161048c565b92915050565b5f805f606084860312156104cd576104cc61033f565b5b5f84013567ffffffffffffffff8111156104ea576104e9610343565b5b6104f686828701610456565b9350506020610507868287016104a2565b9250506040610518868287016104a2565b9150509250925092565b5f602082840312156105375761053661033f565b5b5f610544848285016104a2565b91505092915050565b5f81519050919050565b5f82825260208201905092915050565b5f5b83811015610584578082015181840152602081019050610569565b5f8484015250505050565b5f6105998261054d565b6105a38185610557565b93506105b3818560208601610567565b6105bc8161034f565b840191505092915050565b6105d081610483565b82525050565b5f6060820190508181035f8301526105ee818661058f565b90506105fd60208301856105c7565b61060a60408301846105c7565b949350505050565b5f6020820190506106255f8301846105c7565b92915050565b7f4e487b71000000000000000000000000000000000000000000000000000000005f52602260045260245ffd5b5f600282049050600182168061066f57607f821691505b6020821081036106825761068161062b565b5b50919050565b5f819050815f5260205f209050919050565b5f6020601f8301049050919050565b5f82821b905092915050565b5f600883026106e47fffffffffffffffffffffffffffffffffffffffffffffffffffffffffffffffff826106a9565b6106ee86836106a9565b95508019841693508086168417925050509392505050565b5f819050919050565b5f61072961072461071f84610483565b610706565b610483565b9050919050565b5f819050919050565b6107428361070f565b61075661074e82610730565b8484546106b5565b825550505050565b5f90565b61076a61075e565b610775818484610739565b505050565b5b818110156107985761078d5f82610762565b60018101905061077b565b5050565b601f8211156107dd576107ae81610688565b6107b78461069a565b810160208510156107c6578190505b6107da6107d28561069a565b83018261077a565b50505b505050565b5f82821c905092915050565b5f6107fd5f19846008026107e2565b1980831691505092915050565b5f61081583836107ee565b9150826002028217905092915050565b61082e8261054d565b67ffffffffffffffff8111156108475761084661035f565b5b6108518254610658565b61085c82828561079c565b5f60209050601f83116001811461088d575f841561087b578287015190505b610885858261080a565b8655506108ec565b601f19841661089b86610688565b5f5b828110156108c25784890151825560018201915060208501945060208101905061089d565b868310156108df57848901516108db601f8916826107ee565b8355505b6001600288020188555050505b505050505050565b7f4e487b71000000000000000000000000000000000000000000000000000000005f52601160045260245ffd5b5f61092b82610483565b91507fffffffffffffffffffffffffffffffffffffffffffffffffffffffffffffffff820361095d5761095c6108f4565b5b600182019050919050565b7f496e646578206f7574206f6620626f756e6473000000000000000000000000005f82015250565b5f61099c601383610557565b91506109a782610968565b602082019050919050565b5f6020820190508181035f8301526109c981610990565b905091905056fea2646970667358221220f5828e4990dad2935ad5d25098c81bcae0ecf09edff5149b2cd559c25c5ab0f064736f6c63430008150033",
  "immutableReferences": {},
  "source": "// SPDX-License-Identifier: MIT\r\npragma solidity ^0.8.21;\r\n\r\ncontract ChildData {\r\n    struct Child {\r\n        string name;\r\n        uint256 weightOnAdmission;\r\n        uint256 weightOnDischarge;\r\n    }\r\n\r\n    mapping(uint256 => Child) public children;\r\n    uint256 public childCount;\r\n\r\n    function addChild(string memory _name, uint256 _weightOnAdmission, uint256 _weightOnDischarge) public {\r\n        children[childCount] = Child(_name, _weightOnAdmission, _weightOnDischarge);\r\n        childCount++;\r\n    }\r\n\r\n    function getChild(uint256 _index) public view returns (string memory, uint256, uint256) {\r\n        require(_index < childCount, \"Index out of bounds\");\r\n        Child memory child = children[_index];\r\n        return (child.name, child.weightOnAdmission, child.weightOnDischarge);\r\n    }\r\n}\r\n",
  "sourcePath": "C:\\Users\\ektac\\development\\projects\\minor_project\\blockchain\\contracts\\ChildData.sol",
  "compiler": {
    "name": "solc",
    "version": "0.8.21+commit.d9974bed.Emscripten.clang"
  },
  "schemaVersion": "3.4.16",
  "updatedAt": "2024-11-15T21:10:49.706Z",
  "devdoc": {
    "kind": "dev",
    "methods": {},
    "version": 1
  },
  "userdoc": {
    "kind": "user",
    "methods": {},
    "version": 1
  }
}