{
  "contractName": "ChildData",
  "abi": [
    {
      "inputs": [],
      "name": "childCount",
      "outputs": [
        {
          "internalType": "uint256",
          "name": "",
          "type": "uint256"
        }
      ],
      "stateMutability": "view",
      "type": "function"
    },
    {
      "inputs": [
        {
          "internalType": "uint256",
          "name": "",
          "type": "uint256"
        }
      ],
      "name": "children",
      "outputs": [
        {
          "internalType": "string",
          "name": "name",
          "type": "string"
        },
        {
          "internalType": "uint256",
          "name": "weightOnAdmission",
          "type": "uint256"
        },
        {
          "internalType": "uint256",
          "name": "weightOnDischarge",
          "type": "uint256"
        }
      ],
      "stateMutability": "view",
      "type": "function"
    },
    {
      "inputs": [
        {
          "internalType": "string",
          "name": "_name",
          "type": "string"
        },
        {
          "internalType": "uint256",
          "name": "_weightOnAdmission",
          "type": "uint256"
        },
        {
          "internalType": "uint256",
          "name": "_weightOnDischarge",
          "type": "uint256"
        }
      ],
      "name": "addChild",
      "outputs": [],
      "stateMutability": "nonpayable",
      "type": "function"
    },
    {
      "inputs": [
        {
          "internalType": "uint256",
          "name": "_index",
          "type": "uint256"
        }
      ],
      "name": "getChild",
      "outputs": [
        {
          "internalType": "string",
          "name": "",
          "type": "string"
        },
        {
          "internalType": "uint256",
          "name": "",
          "type": "uint256"
        },
        {
          "internalType": "uint256",
          "name": "",
          "type": "uint256"
        }
      ],
      "stateMutability": "view",
      "type": "function"
    }
  ],
  "bytecode": "0x608060405234801561000f575f80fd5b5061095a8061001d5f395ff3fe608060405234801561000f575f80fd5b506004361061004a575f3560e01c8063667944a31461004e5780637002ce421461006a5780638bc3bbc01461009c578063c909ea42146100ba575b5f80fd5b61006860048036038101906100639190610472565b6100ec565b005b610084600480360381019061007f91906104de565b610160565b60405161009393929190610592565b60405180910390f35b6100a461020b565b6040516100b191906105ce565b60405180910390f35b6100d460048036038101906100cf91906104de565b610211565b6040516100e393929190610592565b60405180910390f35b6040518060600160405280848152602001838152602001828152505f8060015481526020019081526020015f205f820151815f01908161012c91906107e1565b50602082015181600101556040820151816002015590505060015f815480929190610156906108dd565b9190505550505050565b5f602052805f5260405f205f91509050805f01805461017e90610614565b80601f01602080910402602001604051908101604052809291908181526020018280546101aa90610614565b80156101f55780601f106101cc576101008083540402835291602001916101f5565b820191905f5260205f20905b8154815290600101906020018083116101d857829003601f168201915b5050505050908060010154908060020154905083565b60015481565b60605f805f805f8681526020019081526020015f206040518060600160405290815f8201805461024090610614565b80601f016020809104026020016040519081016040528092919081815260200182805461026c90610614565b80156102b75780601f1061028e576101008083540402835291602001916102b7565b820191905f5260205f20905b81548152906001019060200180831161029a57829003601f168201915b50505050508152602001600182015481526020016002820154815250509050805f015181602001518260400151935093509350509193909250565b5f604051905090565b5f80fd5b5f80fd5b5f80fd5b5f80fd5b5f601f19601f8301169050919050565b7f4e487b71000000000000000000000000000000000000000000000000000000005f52604160045260245ffd5b6103518261030b565b810181811067ffffffffffffffff821117156103705761036f61031b565b5b80604052505050565b5f6103826102f2565b905061038e8282610348565b919050565b5f67ffffffffffffffff8211156103ad576103ac61031b565b5b6103b68261030b565b9050602081019050919050565b828183375f83830152505050565b5f6103e36103de84610393565b610379565b9050828152602081018484840111156103ff576103fe610307565b5b61040a8482856103c3565b509392505050565b5f82601f83011261042657610425610303565b5b81356104368482602086016103d1565b91505092915050565b5f819050919050565b6104518161043f565b811461045b575f80fd5b50565b5f8135905061046c81610448565b92915050565b5f805f60608486031215610489576104886102fb565b5b5f84013567ffffffffffffffff8111156104a6576104a56102ff565b5b6104b286828701610412565b93505060206104c38682870161045e565b92505060406104d48682870161045e565b9150509250925092565b5f602082840312156104f3576104f26102fb565b5b5f6105008482850161045e565b91505092915050565b5f81519050919050565b5f82825260208201905092915050565b5f5b83811015610540578082015181840152602081019050610525565b5f8484015250505050565b5f61055582610509565b61055f8185610513565b935061056f818560208601610523565b6105788161030b565b840191505092915050565b61058c8161043f565b82525050565b5f6060820190508181035f8301526105aa818661054b565b90506105b96020830185610583565b6105c66040830184610583565b949350505050565b5f6020820190506105e15f830184610583565b92915050565b7f4e487b71000000000000000000000000000000000000000000000000000000005f52602260045260245ffd5b5f600282049050600182168061062b57607f821691505b60208210810361063e5761063d6105e7565b5b50919050565b5f819050815f5260205f209050919050565b5f6020601f8301049050919050565b5f82821b905092915050565b5f600883026106a07fffffffffffffffffffffffffffffffffffffffffffffffffffffffffffffffff82610665565b6106aa8683610665565b95508019841693508086168417925050509392505050565b5f819050919050565b5f6106e56106e06106db8461043f565b6106c2565b61043f565b9050919050565b5f819050919050565b6106fe836106cb565b61071261070a826106ec565b848454610671565b825550505050565b5f90565b61072661071a565b6107318184846106f5565b505050565b5b81811015610754576107495f8261071e565b600181019050610737565b5050565b601f8211156107995761076a81610644565b61077384610656565b81016020851015610782578190505b61079661078e85610656565b830182610736565b50505b505050565b5f82821c905092915050565b5f6107b95f198460080261079e565b1980831691505092915050565b5f6107d183836107aa565b9150826002028217905092915050565b6107ea82610509565b67ffffffffffffffff8111156108035761080261031b565b5b61080d8254610614565b610818828285610758565b5f60209050601f831160018114610849575f8415610837578287015190505b61084185826107c6565b8655506108a8565b601f19841661085786610644565b5f5b8281101561087e57848901518255600182019150602085019450602081019050610859565b8683101561089b5784890151610897601f8916826107aa565b8355505b6001600288020188555050505b505050505050565b7f4e487b71000000000000000000000000000000000000000000000000000000005f52601160045260245ffd5b5f6108e78261043f565b91507fffffffffffffffffffffffffffffffffffffffffffffffffffffffffffffffff8203610919576109186108b0565b5b60018201905091905056fea26469706673582212209211d2bec3625f93c3e386d034a332c746ec8c114c2d0105ccb99299f2e1b4cc64736f6c63430008150033",
  "immutableReferences": {},
  "source": "// SPDX-License-Identifier: MIT\r\npragma solidity ^0.8.0;\r\n\r\ncontract ChildData {\r\n    struct Child {\r\n        string name;\r\n        uint256 weightOnAdmission;\r\n        uint256 weightOnDischarge;\r\n    }\r\n\r\n    mapping(uint256 => Child) public children;\r\n    uint256 public childCount;\r\n\r\n    function addChild(string memory _name, uint256 _weightOnAdmission, uint256 _weightOnDischarge) public {\r\n        children[childCount] = Child(_name, _weightOnAdmission, _weightOnDischarge);\r\n        childCount++;\r\n    }\r\n\r\n    function getChild(uint256 _index) public view returns (string memory, uint256, uint256) {\r\n        Child memory child = children[_index];\r\n        return (child.name, child.weightOnAdmission, child.weightOnDischarge);\r\n    }\r\n}\r\n",
  "sourcePath": "C:\\Users\\ektac\\development\\projects\\minor_project\\blockchain\\contracts\\ChildData.sol",
  "compiler": {
    "name": "solc",
    "version": "0.8.21+commit.d9974bed.Emscripten.clang"
  },
  "schemaVersion": "3.4.16",
  "updatedAt": "2024-11-15T18:29:16.104Z",
  "devdoc": {
    "kind": "dev",
    "methods": {},
    "version": 1
  },
  "userdoc": {
    "kind": "user",
    "methods": {},
    "version": 1
  }
}